:040000003DEF00F0E0
:10000800FACF01F0FBCF02F0E9CF03F0EACF04F01A
:10001800E1CF05F0E2CF06F0D9CF07F0DACF08F04C
:10002800F3CF09F0F4CF0AF0F6CF0BF0F7CF0CF0CE
:10003800F8CF0DF0F5CF0EF00EC0F5FF0DC0F8FFAC
:100048000CC0F7FF0BC0F6FF0AC0F4FF09C0F3FFAE
:1000580008C0DAFF07C0D9FF06C0E2FF05C0E1FF0C
:1000680004C0EAFF03C0E9FF02C0FBFF01C0FAFFBA
:1000780011000EEF01F00FC011F026D0D388D38AFB
:10008800D38C1200D3508F0B6009D36E1200D3505B
:100098008F0B5009D36E1200D3508F0B4009D36ECB
:1000A8001200D3508F0B3009D36E1200D3508F0B30
:1000B8002009D36E1200D3508F0B1009D36E120093
:1000C800D398D39AD39C12001150000AD8B4D6D72B
:1000D800010AD8B4D7D7030AD8B4D9D7010AD8B4F3
:1000E800DBD7070AD8B4DDD7010AD8B4DFD7030AAB
:1000F800D8B4E1D7010AD8A41200E2D7010E836E62
:10010800000E126E000E116E1250800A800F020E41
:10011800D8B4115CD8B008D0FFEC00F08350832429
:10012800836E114A122AF0D7000E146E000E136E59
:100138001450800A800F020ED8B4135CD8B008D0CF
:10014800FFEC00F0D8908330836E134A142AF0D75E
:10015800FFEC00F0050E836EFFEC00F0020E836EDC
:10016800FFEC00F0050E836EFFEC00F0000E836ECE
:100178001200000E956E010E836E000E126E000EB8
:10018800116E1250800A800F070ED8B4115CD8B0D7
:1001980008D0FFEC00F083508324836E114A122AA2
:1001A800F0D7000E146E000E136E1450800A800FE4
:1001B800070ED8B4135CD8B01200FFEC00F0D8904A
:1001C8008330836E134A142AF0D71A6E030E1B6EFF
:1001D8001A501BC00FF0106A3FEC00F0000E1D6EA5
:1001E800000E1C6E15EC01F01BEC01F082EC00F027
:1001F800BDEC00F0FDD7000E106E000E0F6E105013
:10020800800A6D0F890ED8B40F5CD8B012000F4A5F
:10021800102AF5D71D6A1C6A000EF86E0001E9EF76
:1002280000F09550F80B956E000E836E1200F19E4B
:0A023800F288F19CF28EF29212009F
:020000040020DA
:08000000FFFFFFFFFFFFFFFF00
:020000040030CA
:0E000000FF081F1EFF8981FF0FC00FE00F4099
:00000001FF
